{
  "contractName": "FileContract",
  "abi": [
    {
      "constant": true,
      "inputs": [
        {
          "name": "",
          "type": "address"
        },
        {
          "name": "",
          "type": "uint256"
        }
      ],
      "name": "files",
      "outputs": [
        {
          "name": "id",
          "type": "uint256"
        },
        {
          "name": "ipfshash",
          "type": "string"
        },
        {
          "name": "filename",
          "type": "bytes32"
        },
        {
          "name": "owner",
          "type": "address"
        },
        {
          "name": "timestamp",
          "type": "uint256"
        }
      ],
      "payable": false,
      "stateMutability": "view",
      "type": "function",
      "signature": "0x2ba6978e"
    },
    {
      "constant": true,
      "inputs": [
        {
          "name": "",
          "type": "address"
        }
      ],
      "name": "lastIds",
      "outputs": [
        {
          "name": "",
          "type": "uint256"
        }
      ],
      "payable": false,
      "stateMutability": "view",
      "type": "function",
      "signature": "0xa7474918"
    },
    {
      "constant": true,
      "inputs": [],
      "name": "maxAmountOfFiles",
      "outputs": [
        {
          "name": "",
          "type": "uint256"
        }
      ],
      "payable": false,
      "stateMutability": "view",
      "type": "function",
      "signature": "0xfd6b6a0f"
    },
    {
      "anonymous": false,
      "inputs": [
        {
          "indexed": false,
          "name": "fileid",
          "type": "uint256"
        },
        {
          "indexed": false,
          "name": "ipfshash",
          "type": "string"
        },
        {
          "indexed": false,
          "name": "_filename",
          "type": "bytes32"
        }
      ],
      "name": "fileAdded",
      "type": "event",
      "signature": "0x8e74f36ceb7ee94ec98ad9f445180c7c6c584a8ca9c1170e94461e6f7e6c6c26"
    },
    {
      "anonymous": false,
      "inputs": [
        {
          "indexed": false,
          "name": "tags",
          "type": "bytes32[5]"
        }
      ],
      "name": "tagsAdded",
      "type": "event",
      "signature": "0x1fd2e0dedaaab32630bbbabbc6b14ce44421f30a6b4a7af9e5010f1463e4d6e7"
    },
    {
      "constant": false,
      "inputs": [
        {
          "name": "ipfshash",
          "type": "string"
        },
        {
          "name": "_filename",
          "type": "bytes32"
        },
        {
          "name": "tags",
          "type": "bytes32[5]"
        }
      ],
      "name": "addFile",
      "outputs": [],
      "payable": false,
      "stateMutability": "nonpayable",
      "type": "function",
      "signature": "0xbfa93325"
    },
    {
      "constant": true,
      "inputs": [
        {
          "name": "owner",
          "type": "address"
        },
        {
          "name": "_index",
          "type": "uint256"
        }
      ],
      "name": "getFileTags",
      "outputs": [
        {
          "name": "",
          "type": "bytes32[5]"
        }
      ],
      "payable": false,
      "stateMutability": "view",
      "type": "function",
      "signature": "0x28841d8e"
    }
  ],
  "bytecode": "0x608060405234801561001057600080fd5b506108b3806100206000396000f3fe60806040526004361061006c5763ffffffff7c010000000000000000000000000000000000000000000000000000000060003504166328841d8e81146100715780632ba6978e146100ef578063a7474918146101f5578063bfa9332514610247578063fd6b6a0f14610331575b600080fd5b34801561007d57600080fd5b506100b76004803603604081101561009457600080fd5b5073ffffffffffffffffffffffffffffffffffffffff8135169060200135610346565b604051808260a080838360005b838110156100dc5781810151838201526020016100c4565b5050505090500191505060405180910390f35b3480156100fb57600080fd5b506101356004803603604081101561011257600080fd5b5073ffffffffffffffffffffffffffffffffffffffff81351690602001356103bf565b60405180868152602001806020018581526020018473ffffffffffffffffffffffffffffffffffffffff1673ffffffffffffffffffffffffffffffffffffffff168152602001838152602001828103825286818151815260200191508051906020019080838360005b838110156101b657818101518382015260200161019e565b50505050905090810190601f1680156101e35780820380516001836020036101000a031916815260200191505b50965050505050505060405180910390f35b34801561020157600080fd5b506102356004803603602081101561021857600080fd5b503573ffffffffffffffffffffffffffffffffffffffff166104a7565b60408051918252519081900360200190f35b34801561025357600080fd5b5061032f600480360360e081101561026a57600080fd5b81019060208101813564010000000081111561028557600080fd5b82018360208201111561029757600080fd5b803590602001918460018302840111640100000000831117156102b957600080fd5b91908080601f016020809104026020016040519081016040528093929190818152602001838380828437600092019190915250506040805160a081810190925293968535969095909460c08201945092506020019060059083908390808284376000920191909152509194506104b99350505050565b005b34801561033d57600080fd5b5061023561075e565b61034e610764565b73ffffffffffffffffffffffffffffffffffffffff83166000908152602081905260409020826103e8811061037f57fe5b6040805160a081019182905292600a929092029091016003019060059082845b81548152602001906001019080831161039f575050505050905092915050565b6000602052816000526040600020816103e8811015156103db57fe5b600a0201805460018083018054604080516020600295841615610100026000190190931694909404601f810183900483028501830190915280845293965093945090929091908301828280156104725780601f1061044757610100808354040283529160200191610472565b820191906000526020600020905b81548152906001019060200180831161045557829003601f168201915b50505050600283015460088401546009909401549293909273ffffffffffffffffffffffffffffffffffffffff909116915085565b60016020526000908152604090205481565b6104c1610783565b506040805160c0810182523360008181526001602090815284822054845283018790528284018690526060830185905260808301919091524260a080840191909152925191927f1fd2e0dedaaab32630bbbabbc6b14ce44421f30a6b4a7af9e5010f1463e4d6e7928592909182918491908190849084905b83811015610551578181015183820152602001610539565b5050505090500191505060405180910390a1336000908152602081815260408083206001909252909120548291906103e8811061058a57fe5b600a02016000820151816000015560208201518160010190805190602001906105b49291906107bf565b506040820151600282015560608201516105d4906003830190600561083d565b5060808201518160080160006101000a81548173ffffffffffffffffffffffffffffffffffffffff021916908373ffffffffffffffffffffffffffffffffffffffff16021790555060a082015181600901559050507f8e74f36ceb7ee94ec98ad9f445180c7c6c584a8ca9c1170e94461e6f7e6c6c26600160003373ffffffffffffffffffffffffffffffffffffffff1673ffffffffffffffffffffffffffffffffffffffff1681526020019081526020016000205485856040518084815260200180602001838152602001828103825284818151815260200191508051906020019080838360005b838110156106d55781810151838201526020016106bd565b50505050905090810190601f1680156107025780820380516001836020036101000a031916815260200191505b5094505050505060405180910390a1336000908152600160205260409020546103e81161073e5733600090815260016020526040812055610758565b336000908152600160208190526040909120805490910190555b50505050565b6103e881565b60a0604051908101604052806005906020820280388339509192915050565b60408051610140810182526000808252606060208301819052928201529081016107ab610764565b815260006020820181905260409091015290565b828054600181600116156101000203166002900490600052602060002090601f016020900481019282601f1061080057805160ff191683800117855561082d565b8280016001018555821561082d579182015b8281111561082d578251825591602001919060010190610812565b5061083992915061086a565b5090565b826005810192821561082d579160200282018281111561082d578251825591602001919060010190610812565b61088491905b808211156108395760008155600101610870565b9056fea165627a7a72305820638b1c89a9633beea14d0749d4eed226fbaf6a9981d03f77a33f97548327b1390029",
  "source": "pragma solidity ^0.5.0;\n\n/// Stores a FileContract on solidity, as an array of structs cannot easily be returned\n/// the structs must be decomposed by the UI\n/// simple FileContract contains ipfshash, filename, owner, tags and unix timestamp.\n/// Since we can't use an bytes32 array in solidity, I decided to have tag numbers\n/// corresponding to string names, almost like a dictionary look up.\ncontract FileContract {\n\n   /// struct that contains unique link to image (via IPFS), serial Id, and timestamp\n   struct File {\n      uint256 id;\n      string ipfshash;\n      bytes32 filename;\n      bytes32[5] tags;\n      address owner;\n      uint256 timestamp;\n   }\n   uint256 public constant maxAmountOfFiles = 1000;\n   // Owner => files\n   mapping(address => File[maxAmountOfFiles]) public files;\n   // Owner => last files id\n   mapping(address => uint256) public lastIds;\n   // consider mapping hash to set of tags\n\n   /// main event for smart contract, needed for drizzle to update list of files\n   event fileAdded (uint256 fileid, string ipfshash, bytes32 _filename);\n   event tagsAdded (bytes32[5] tags);\n\n   /// Add a file to the list\n   /// ipfshash an ipfshash returned after an image is finished uploaded\n   /// _filename name of file as a bytes32 as filenames should be short\n   /// tags array of bytes32 used for sorting/searching files (e,g. blockchain, school, textbook)\n   /// updates mappings todos and lastIds\n   function addFile(string memory ipfshash, bytes32 _filename, bytes32[5] memory tags) public {\n\n      File memory myFile = File(lastIds[msg.sender], ipfshash, _filename, tags,  msg.sender, now);\n      // explicitly store tags\n      myFile.tags = tags;\n      emit tagsAdded (myFile.tags);\n      // store new file in mapping\n\n      files[msg.sender][lastIds[msg.sender]] = myFile;\n      // emit event, also need for drizzle\n      emit fileAdded(lastIds[msg.sender],ipfshash,_filename);\n      if(lastIds[msg.sender] >= maxAmountOfFiles) lastIds[msg.sender] = 0;\n      else lastIds[msg.sender]++;\n   }\n\n   /// return the tags for a specific file\n   /// owner --- address of person who uploaded the file\n   /// _index --- the file desired, (first file uploaded, second , etc ...)\n   function getFileTags(address owner, uint256 _index) external view returns (bytes32[5] memory) {\n       return files[owner][_index].tags;\n  }\n\n}\n",
  "sourcePath": "/Users/Power/Documents/Blockchain_Work/test4/contracts/FileContract.sol",
  "compiler": {
    "name": "solc",
    "version": "0.5.0+commit.1d4f565a.Emscripten.clang"
  },
  "schemaVersion": "3.0.1",
  "updatedAt": "2019-01-27T18:40:46.718Z",
  "devdoc": {
    "methods": {}
  },
  "userdoc": {
    "methods": {
      "addFile(string,bytes32,bytes32[5])": {
        "notice": "Add a file to the list ipfshash an ipfshash returned after an image is finished uploaded _filename name of file as a bytes32 as filenames should be short tags array of bytes32 used for sorting/searching files (e,g. blockchain, school, textbook) updates mappings todos and lastIds"
      },
      "getFileTags(address,uint256)": {
        "notice": "return the tags for a specific file owner --- address of person who uploaded the file _index --- the file desired, (first file uploaded, second , etc ...)"
      }
    },
    "notice": "Stores a FileContract on solidity, as an array of structs cannot easily be returned the structs must be decomposed by the UI simple FileContract contains ipfshash, filename, owner, tags and unix timestamp. Since we can't use an bytes32 array in solidity, I decided to have tag numbers corresponding to string names, almost like a dictionary look up."
  }
}