{
  "contractName": "Identity",
  "abi": [
    {
      "constant": true,
      "inputs": [
        {
          "name": "",
          "type": "uint256"
        }
      ],
      "name": "allUsers",
      "outputs": [
        {
          "name": "",
          "type": "address"
        }
      ],
      "payable": false,
      "stateMutability": "view",
      "type": "function",
      "signature": "0xa2bdedf4"
    },
    {
      "anonymous": false,
      "inputs": [
        {
          "indexed": true,
          "name": "_address",
          "type": "address"
        },
        {
          "indexed": false,
          "name": "_name",
          "type": "bytes32"
        },
        {
          "indexed": false,
          "name": "_created_at",
          "type": "uint256"
        }
      ],
      "name": "UserCreated",
      "type": "event",
      "signature": "0x75a78c3506795933e208740942b53541acf3eb85d5ca731a904e358b120d6116"
    },
    {
      "anonymous": false,
      "inputs": [
        {
          "indexed": true,
          "name": "_address",
          "type": "address"
        },
        {
          "indexed": false,
          "name": "_name",
          "type": "bytes32"
        }
      ],
      "name": "UserUpdated",
      "type": "event",
      "signature": "0x6c46eb453c5219d7665e4dda98f6200b9c6978d989806dfc2d2b17dc03609c53"
    },
    {
      "anonymous": false,
      "inputs": [
        {
          "indexed": true,
          "name": "_address",
          "type": "address"
        }
      ],
      "name": "UserDeleted",
      "type": "event",
      "signature": "0x4bc56f1321288dfb5b416cb3a7fd188723979f9e866c91d88eccf7fca039d039"
    },
    {
      "constant": true,
      "inputs": [],
      "name": "login",
      "outputs": [
        {
          "name": "",
          "type": "bytes32"
        }
      ],
      "payable": false,
      "stateMutability": "view",
      "type": "function",
      "signature": "0xb34e97e8"
    },
    {
      "constant": false,
      "inputs": [
        {
          "name": "name",
          "type": "bytes32"
        }
      ],
      "name": "signup",
      "outputs": [
        {
          "name": "",
          "type": "bytes32"
        }
      ],
      "payable": true,
      "stateMutability": "payable",
      "type": "function",
      "signature": "0x5c1397de"
    },
    {
      "constant": false,
      "inputs": [
        {
          "name": "name",
          "type": "bytes32"
        }
      ],
      "name": "update",
      "outputs": [
        {
          "name": "",
          "type": "bytes32"
        }
      ],
      "payable": true,
      "stateMutability": "payable",
      "type": "function",
      "signature": "0x8b147245"
    },
    {
      "constant": false,
      "inputs": [],
      "name": "destroy",
      "outputs": [],
      "payable": false,
      "stateMutability": "nonpayable",
      "type": "function",
      "signature": "0x83197ef0"
    }
  ],
  "bytecode": "0x608060405234801561001057600080fd5b506103b6806100206000396000f3fe60806040526004361061006c5763ffffffff7c01000000000000000000000000000000000000000000000000000000006000350416635c1397de811461007157806383197ef0146100a05780638b147245146100b7578063a2bdedf4146100d4578063b34e97e814610127575b600080fd5b61008e6004803603602081101561008757600080fd5b503561013c565b60408051918252519081900360200190f35b3480156100ac57600080fd5b506100b5610230565b005b61008e600480360360208110156100cd57600080fd5b503561028b565b3480156100e057600080fd5b506100fe600480360360208110156100f757600080fd5b5035610326565b6040805173ffffffffffffffffffffffffffffffffffffffff9092168252519081900360200190f35b34801561013357600080fd5b5061008e61035b565b60008180151561014b57600080fd5b336000908152602081905260409020541515610217573360008181526020818152604080832087815542600191820181905581548083018355919094527fb10e2d527612073b26eecdfd717e6a320cf44b4afac2b0732d9fcbe2b7fa0cf601805473ffffffffffffffffffffffffffffffffffffffff19168517905580518781529182019290925281517f75a78c3506795933e208740942b53541acf3eb85d5ca731a904e358b120d6116929181900390910190a233600090815260208190526040902054915061022a565b3360009081526020819052604090205491505b50919050565b33600090815260208190526040902054151561024b57600080fd5b33600081815260208190526040808220828155600101829055517f4bc56f1321288dfb5b416cb3a7fd188723979f9e866c91d88eccf7fca039d0399190a2565b60008180151561029a57600080fd5b3360009081526020819052604090205415156102b557600080fd5b336000908152602081905260409020541561022a573360008181526020818152604091829020869055815186815291517f6c46eb453c5219d7665e4dda98f6200b9c6978d989806dfc2d2b17dc03609c539281900390910190a233600090815260208190526040902054915061022a565b600180548290811061033457fe5b60009182526020909120015473ffffffffffffffffffffffffffffffffffffffff16905081565b33600090815260208190526040812054151561037657600080fd5b50336000908152602081905260409020549056fea165627a7a72305820d6ab841572c911c77a233997eb0f2f9a07e3745bf268eba8956b43bf97750d990029",
  "source": "pragma solidity ^0.5.0;\n\n\n///  basic Identity contract\n///  tracks list of all users\ncontract Identity {\n  struct User {\n    bytes32 name;\n    uint256 created_at;\n  }\n\n  event UserCreated(address indexed _address, bytes32 _name, uint256 _created_at);\n  event UserUpdated(address indexed _address, bytes32 _name);\n  event UserDeleted(address indexed _address);\n\n  // make info public???\n  mapping (address => User) private users;\n\n  // public array that contains list of all users that have registered\n  address[] public allUsers;\n  modifier onlyExistingUser {\n    // Check if user exists or terminate\n\n    require(!(users[msg.sender].name == 0x0));\n    _;\n  }\n\n  modifier onlyValidName(bytes32 name) {\n    // Only valid names allowed\n\n    require(!(name == 0x0));\n    _;\n  }\n\n  /// @return username\n  function login()\n  public\n  view\n  onlyExistingUser\n  returns (bytes32) {\n    return (users[msg.sender].name);\n  }\n\n  /// name the username to be created.\n  /// check if user exists\n  /// If yes return user name\n  /// If no, check if name was sent\n  /// If yes, create and return user\n  /// return username of created user\n  function signup(bytes32 name)\n  public\n  payable\n  onlyValidName(name)\n  returns (bytes32) {\n\n    if (users[msg.sender].name == 0x0)\n    {\n        users[msg.sender].name = name;\n\t    users[msg.sender].created_at = now;\n\n        allUsers.push(msg.sender);\n        emit UserCreated(msg.sender,name,now);\n        return (users[msg.sender].name);\n    }\n\n    return (users[msg.sender].name);\n  }\n\n  /// name updating username\n  /// updating user name\n  /// updated username\n  function update(bytes32 name)\n  public\n  payable\n  onlyValidName(name)\n  onlyExistingUser\n  returns (bytes32) {\n    // Update user name.\n\n    if (users[msg.sender].name != 0x0)\n    {\n        users[msg.sender].name = name;\n\n        emit UserUpdated(msg.sender,name);\n\n        return (users[msg.sender].name);\n    }\n  }\n\n  /// destroy existing username\n  function destroy ()\n  public\n  onlyExistingUser {\n    delete users[msg.sender];\n    emit UserDeleted(msg.sender);\n  }\n}\n",
  "sourcePath": "/Users/Power/Documents/Blockchain_Work/test4/contracts/Identity.sol",
  "compiler": {
    "name": "solc",
    "version": "0.5.0+commit.1d4f565a.Emscripten.clang"
  },
  "schemaVersion": "3.0.1",
  "updatedAt": "2019-01-27T18:40:46.722Z",
  "devdoc": {
    "methods": {
      "login()": {
        "return": "username"
      }
    }
  },
  "userdoc": {
    "methods": {
      "destroy()": {
        "notice": "destroy existing username"
      },
      "signup(bytes32)": {
        "notice": "name the username to be created. check if user exists If yes return user name If no, check if name was sent If yes, create and return user return username of created user"
      },
      "update(bytes32)": {
        "notice": "name updating username updating user name updated username"
      }
    },
    "notice": "basic Identity contract  tracks list of all users"
  }
}